:04000005080023F1DB
:020000040800F2
:1000000000000824F1230008951F00089D1F000828
:10001000A51F0008AD1F0008B51F00080000000064
:10002000000000000000000000000000215C01084A
:10003000BD1F000800000000715E01084121010899
:1000400041240008412400084124000841240008FC
:1000500041240008412400084124000841240008EC
:10006000CB1F00084124000841240008D91F0008C4
:10007000ED1F0008012000081520000829200008B5
:100080003D20000851200008412400086520000898
:100090004124000879200008412400084124000878
:1000A000412400084124000841240008412400089C
:1000B000412400084124000841240008412400088C
:1000C0004124000841240008412400088D20000834
:1000D00041240008A1200008B520000841240008A0
:1000E00041240008412400080000000041240008C9
:1000F000412400084124000841240008C9200008C8
:10010000412400084124000841240008412400083B
:100110004124000841240008DD2000084124000893
:10012000F1200008052100084124000841240008AE
:10013000412400084124000841240008412400080B
:1001400000000000000000000000000000000000AF
:1001500041240008412400084124000841240008EB
:10016000192100082D21000841240008412400081D
:100170004124000841240008412400080000000038
:1001800041240008412400084124000841210008BE
:1001900041240008412400084124000841240008AB
:1001A000412400084124000841240008412400089B
:1001B000412400084124000841240008412400088B
:1001C000412400084124000841240008412400087B
:1001D000412400084124000841240008412400086B
:1001E000412400084124000841240008412400085B
:1001F000412400084124000841240008412400084B
:10020000412400084124000841240008412400083A
:10021000412400084124000841240008412400082A
:100220004124000841240008412400080000000087
:100230004124000841240008000000004124000877
:1002400041240008412400084124000841240008FA
:1002500041240008412400084124000841240008EA
:1002600041240008412400084124000841240008DA
:100270004124000841240008412400080000000037
:100280004124000841240008412400080000000027
:080290000000000041240008F9
:1002A00010B5054C237833B9044B13B10448AFF3B0
:1002B00000800123237010BDF00100240000000025
:1002C00078D3030808B5034B1BB103490348AFF3C8
:1002D000008008BD00000000F401002478D303086A
:1002E00001F0FF01102A2BDB10F0070F08D010F8E7
:1002F000013B013A8B422DD010F0070F42B3F6D1EB
:10030000F0B441EA012141EA014122F007047FF003
:1003100000070023F0E80256083C85EA010586EA5A
:10032000010685FA47F5A3FA87F586FA47F6A5FA96
:1003300087F68EB9EED1F0BC01F0FF0102F00702A2
:1003400032B110F8013B013A83EA010313B1F8D14D
:100350000020704701387047002D06BF354603382E
:10036000073815F0010F07D1013015F4807F02BF67
:10037000013015F4C03F0130F0BC0138704700BFB8
:10038000034613F8012B002AFBD1181A01387047D5
:1003900081F0004102E000BF83F0004330B54FEA36
:1003A00041044FEA430594EA050F08BF90EA020FA3
:1003B0001FBF54EA000C55EA020C7FEA645C7FEA36
:1003C000655C00F0E2804FEA5454D4EB5555B8BF59
:1003D0006D420CDD2C4480EA020281EA030382EACA
:1003E000000083EA010180EA020281EA0303362D5C
:1003F00088BF30BD11F0004F4FEA01314FF4801C2F
:100400004CEA113102D0404261EB410113F0004F40
:100410004FEA03334CEA133302D0524263EB4303F7
:1004200094EA050F00F0A780A4F10104D5F1200E95
:100430000DDB02FA0EFC22FA05F2801841F10001F0
:1004400003FA0EF2801843FA05F359410EE0A5F1C4
:1004500020050EF1200E012A03FA0EFC28BF4CF0F5
:10046000020C43FA05F3C01851EBE37101F00045AB
:1004700007D54FF0000EDCF1000C7EEB00006EEBB8
:100480000101B1F5801F1BD3B1F5001F0CD3490842
:100490005FEA30004FEA3C0C04F101044FEA445299
:1004A00012F5800F80F09A80BCF1004F08BF5FEA20
:1004B000500C50F1000041EB045141EA050130BD00
:1004C0005FEA4C0C404141EB0101013C28BFB1F512
:1004D000801FE9D291F0000F04BF01460020B1FA5D
:1004E00081F308BF2033A3F10B03B3F120020CDA30
:1004F0000C3208DD02F1140CC2F10C0201FA0CF00E
:1005000021FA02F10CE002F11402D8BFC2F1200C72
:1005100001FA02F120FA0CFCDCBF41EA0C01904028
:10052000E41AA2BF01EB0451294330BD6FEA040471
:100530001F3C1CDA0C340EDC04F11404C4F120025C
:1005400020FA04F001FA02F340EA030021FA04F36E
:1005500045EA030130BDC4F10C04C4F1200220FAC5
:1005600002F001FA04F340EA0300294630BD21FA03
:1005700004F0294630BD94F0000F83F4801306BFC9
:1005800081F480110134013D4EE77FEA645C18BFBD
:100590007FEA655C29D094EA050F08BF90EA020F54
:1005A00005D054EA000C04BF1946104630BD91EA4C
:1005B000030F1EBF0021002030BD5FEA545C05D14F
:1005C0004000494128BF41F0004130BD14F580048E
:1005D0003CBF01F5801130BD01F0004545F0FE4102
:1005E00041F470014FF0000030BD7FEA645C1ABF37
:1005F000194610467FEA655C1CBF0B46024650EA6E
:10060000013406BF52EA033591EA030F41F4002199
:1006100030BD00BF90F0000F04BF0021704730B51F
:100620004FF4806404F132044FF000054FF00001F4
:1006300050E700BF90F0000F04BF0021704730B5B5
:100640004FF4806404F1320410F0004548BF40428A
:100650004FF000013EE700BF42004FEAE2014FEADF
:1006600031014FEA02701FBF12F07F4393F07F4FBA
:1006700081F06051704732F07F4208BF704793F0BD
:100680007F4F04BF41F40021704730B54FF46074D0
:1006900001F0004521F000411CE700BF50EA0102D3
:1006A00008BF704730B54FF000050AE050EA01027C
:1006B00008BF704730B511F0004502D5404261EBEC
:1006C00041014FF4806404F132045FEA915C3FF42D
:1006D000D8AE4FF003025FEADC0C18BF03325FEACA
:1006E000DC0C18BF033202EBDC02C2F1200300FA7B
:1006F00003FC20FA02F001FA03FE40EA0E0021FAA0
:1007000002F11444BDE600BF53B94AB9002908BF3D
:1007100000281CBF4FF0FF314FF0FF3000F088B9C8
:10072000ADF1080C6DE904CE00F006F8DDF804E048
:10073000DDE9022304B070472DE9F047089D8E469D
:1007400004468846002B4AD18A42174662D9B2FA3B
:1007500082F64EB1C6F1200301FA06F820FA03F33F
:10076000B74043EA0808B4404FEA174E1FFA87FC27
:10077000B8FBFEF1230C0EFB118843EA084301FB92
:100780000CF29A4209D9FB1801F1FF3080F0EA809F
:100790009A4240F2E78002393B449A1AA3B2B2FB74
:1007A000FEF00EFB102243EA024300FB0CFC9C45CA
:1007B00009D9FB1800F1FF3280F0D6809C4540F249
:1007C000D3803B44023840EA0140A3EB0C030021F4
:1007D0001DB1F3400022C5E90032BDE8F0878B422D
:1007E00005D90DB1C5E9000100210846F5E7B3FAC6
:1007F00083F1002946D1734502D3824200F205817C
:10080000841A6EEB030201209046002DE5D0C5E965
:100810000048E2E7002A00F09080B2FA82F6002E4B
:1008200040F0A4808A1A030C4FEA174E80B2BCB283
:100830000121B2FBFEFC0EFB1C2243EA024304FB37
:100840000CF29A4207D9FB180CF1FF3802D29A42F7
:1008500000F2E080C4469B1AB3FBFEF20EFB12339B
:1008600040EA034302FB04F49C4207D9FB1802F15F
:10087000FF3002D29C4200F2CA8002461B1B42EAB1
:100880000C40A5E7C1F120068B4022FA06F71F4372
:100890000EFA01F420FA06F32EFA06FE4FEA174983
:1008A000234300FA01F81FFA87FCBEFBF9F01C0C89
:1008B00009FB10EE44EA0E4400FB0CFEA64502FACA
:1008C00001F209D93C1900F1FF3A80F09C80A6455D
:1008D00040F2998002383C44A4EB0E041FFA83FED8
:1008E000B4FBF9F309FB13444EEA044403FB0CFC8C
:1008F000A44508D93C1903F1FF3E80F08280A4454D
:100900007FD9023B3C4443EA0040A4EB0C04A0FB2B
:1009100002EC64457346E14662D35FD05DB1B8EB4B
:10092000030264EB090404FA06F622FA01F31E43FB
:10093000CC40C5E9006400214FE7B1FBF2FC010C9B
:1009400041EA0E4180B240EA01423B4638463C460D
:10095000B846BE462026B1FBF7F1A2EB080241EAF9
:100960000C4166E7014618E710462CE7C6F1200265
:100970002EFA02F3B740B14020FA02F24FEA174EC6
:100980000A43B3FBFEF8BCB20EFB1833110C41EA6C
:10099000034108FB04F9B04089454FEA104380B297
:1009A0003ED9791808F1FF3C01D289451FD8A1EB47
:1009B0000901B1FBFEF909FB04F80EFB191192B213
:1009C00042EA0142424529D2BA1809F1FF31C4D2A4
:1009D0004245C2D2A9F102013A44BEE7F0459DD298
:1009E000BEEB02036CEB070C0138E14696E7A7EB80
:1009F00009094944A8F1020CB1FBFEF909FB04F80E
:100A0000DBE773467FE7504666E70846FDE63B4472
:100A1000023A33E7ACF1020C3B441CE749469CE741
:100A2000A1EB0901C446B1FBFEF909FB04F8C4E7D8
:100A3000704700BF80B500AF01F004FD00F03AF848
:100A400000F016FC00F030FB00F094FA00F0A0F982
:100A500000F042FA00F0DAFA00F0F0F900F048F99C
:100A600000F006F900F0A0F811F084FB0B4B002217
:100A700001210B4811F0FAFC03460A4A136023F0E7
:100A80001FF8094A0021094811F0F5FB0346084AFE
:100A9000136011F0B5FB00BFFDE700BF9CE0030849
:100AA000BF140008CC0B002478E00308AD14000844
:100AB000C80B002480B59CB000AF07F124034C2282
:100AC000002118463AF05AFC3B1D2022002118460E
:100AD0003AF054FC022008F0E5FA00233B60304B6A
:100AE0009B692F4A43F4404393612D4B9B6903F468
:100AF00040433B602B4BDB6A2A4A43F00103D3623D
:100B0000284BDB6A03F001033B603B6800BF244BCA
:100B10009B6903F40053B3F5005FF8D101237B62B6
:100B20004FF48033BB620223BB640223FB640223C5
:100B30003B6540237B650223BB650423FB650223E1
:100B40003B660C237B660023BB660023FB6607F134
:100B50002403184608F0E0FA0346002B01D000F009
:100B6000CBFC3F237B600323BB600023FB60082397
:100B70003B6140237B614023BB614FF48063FB6199
:100B800040233B623B1D0221184608F01FFF03462D
:100B9000002B01D000F0B0FC00BF7037BD4680BD17
:100BA000004802580004005880B500AF2E4B2F4A71
:100BB0001A602D4B00229A602B4B0022DA602A4BE0
:100BC00000221A74284B00225A74274B00229A7470
:100BD000254B0A225A61244B01229A61224B07229B
:100BE000DA61214B02221A621F4B01225A621E4B0C
:100BF00001229A621C4B0122DA621B4B01221A630A
:100C0000194B00225A63184B00229A63164B00229C
:100C1000DA63154B04221A64134B04225A64124BF4
:100C200004229A64104B0422DA640F4B00221A65E6
:100C30000D4B04225A650C4B00229A650A4B1C226C
:100C4000DA65094B04221A66074B00225A66064BE6
:100C500004229A66044804F027FC0346002B01D0C6
:100C600000F04AFC00BF80BD0C02002400A0004040
:100C700080B500AF1B4B1C4A1A601A4B1B4A5A60C6
:100C8000184B00229A60174B0122DA60154B0022A4
:100C90001A61144B00225A61124B00229A61114BC7
:100CA0000022DA610F4B00221A620E4805F0FCFEAA
:100CB0000346002B01D000F01FFC0021094808F07A
:100CC00059F90346002B01D000F016FC002105481D
:100CD00008F09BF90346002B01D000F00DFC00BF8B
:100CE00080BD00BFAC020024005C0040FFECC010DF
:100CF00080B500AF244B254A1A60234B00225A606E
:100D0000214B00229A60204B0722DA601E4B002202
:100D10001A611D4B00225A611B4B00229A611A4B2B
:100D200000221A62184B00225A62174B00229A6264
:100D3000154B0022DA62144B00225A63124B002238
:100D40009A63114B0022DA630F4B00221A640E4B98
:100D500000225A640C4B00229A640B4B0022DA6486
:100D6000094B00221A65084B00225A65064B0022E7
:100D70009A6505480BF024F80346002B01D000F0DB
:100D8000BBFB00BF80BD00BF00030024003001405A
:100D900080B500AF274B284A1A60264B4FF48002DB
:100DA0005A60244B00229A60224B0722DA60214BC2
:100DB00000221A611F4B00225A611E4B4FF08062C5
:100DC0009A611C4B4FF0A042DA611A4B00221A6262
:100DD000184B00225A62174B00229A62154B0022D0
:100DE000DA62144B4FF080425A63124B00229A632E
:100DF000104B0022DA630F4B00221A640D4B0022C5
:100E00005A640C4B00229A640A4B0022DA64094BA4
:100E100000221A65074B00225A65064B00229A658C
:100E200004480AF0CDFF0346002B01D000F064FB1C
:100E300000BF80BDB40300240038004080B588B0F6
:100E400000AF07F1100300221A605A609A60DA605E
:100E50003B1D00221A605A609A601E4B4FF0804280
:100E60001A601C4B00225A601A4B00229A60194BE0
:100E70004FF0FF32DA60174B00221A61154B002247
:100E80009A6114480CF03DFE0346002B01D000F09F
:100E900033FB4FF480533B6107F1100319460D48B3
:100EA0000DF006F80346002B01D000F025FB0023CF
:100EB0007B600023FB603B1D194606480DF056FA87
:100EC0000346002B01D000F017FB00BF2037BD46C2
:100ED00080BD00BF5805002480B500AF234B244AD5
:100EE0001A60224B4FF4E1325A60204B4FF480528B
:100EF0009A601E4B0022DA601C4B4FF480621A612C
:100F00001A4B0C225A61194B00229A61174B00228E
:100F1000DA61164B00221A62144B00225A62134BFC
:100F200000229A6211480DF0CDFA0346002B01D041
:100F300000F0E2FA00210D4810F0B9FF0346002B43
:100F400001D000F0D9FA0021084810F0EEFF034666
:100F5000002B01D000F0D0FA044810F06FFF0346D8
:100F6000002B01D000F0C8FA00BF80BDA40500240A
:100F7000007C004080B500AF224B234A1A60214B11
:100F80004FF4E1325A601F4B00229A601D4B002241
:100F9000DA601C4B00221A611A4B0C225A61194B61
:100FA00000229A61174B0022DA61164B00221A6266
:100FB000144B00225A62134B00229A6211480DF022
:100FC00081FA0346002B01D000F096FA00210D486B
:100FD00010F06DFF0346002B01D000F08DFA0021C8
:100FE000084810F0A2FF0346002B01D000F084FA5D
:100FF000044810F023FF0346002B01D000F07CFAD8
:1010000000BF80BD700600240010014080B500AF15
:10101000224B234A1A60214B224A5A601F4B00225E
:101020009A601E4B0022DA601C4B00221A611B4B97
:101030000C225A61194B00229A61184B0022DA6186
:10104000164B00221A62154B00225A62134B0022E3
:101050009A6212480DF036FA0346002B01D000F0D8
:101060004BFA00210D4810F022FF0346002B01D05F
:1010700000F042FA0021094810F057FF0346002B08
:1010800001D000F039FA054810F0D8FE0346002BD5
:1010900001D000F031FA00BF80BD00BF3C07002442
:1010A0000044004040420F0080B582B000AF6B4B5F
:1010B000D3F8D830694A43F00103C2F8D830674BFF
:1010C000D3F8D83003F001037B607B68634BD3F81F
:1010D000D830624A43F00203C2F8D8305F4BD3F8ED
:1010E000D83003F002033B603B685D4B5D4A1A60F9
:1010F0005B4B00225A605A4B80229A60584B4FF447
:101100000072DA60564B4FF480621A61544B002231
:101110005A61534B00229A61514B0022DA61504BC5
:101120004FF440321A624E4B04225A624C4B032257
:101130009A624B4B0022DA62494B00221A634848FC
:1011400001F002FB0346002B01D000F0D5F9464B1D
:10115000464A1A60444B00225A60434B80229A60F0
:10116000414B4FF40072DA603F4B4FF480621A61DA
:101170003D4B00225A613C4B00229A613A4B0022BF
:10118000DA61394B4FF400321A62374B04225A624B
:10119000354B03229A62344B0022DA62324B002232
:1011A0001A63314801F0D0FA0346002B01D000F059
:1011B000A3F9002205210B2001F09EFA0B2001F07B
:1011C000B5FA002205210C2001F096FA0C2001F05E
:1011D000ADFA002205210D2001F08EFA0D2001F05C
:1011E000A5FA002205210E2001F086FA0E2001F05A
:1011F0009DFA002205210F2001F07EFA0F2001F058
:1012000095FA00220521102001F076FA102001F055
:101210008DFA00220521112001F06EFA112001F053
:1012200085FA002205212F2001F066FA2F2001F017
:101230007DFA00220521382001F05EFA382001F005
:1012400075FA00220521392001F056FA392001F003
:101250006DFA00BF0837BD4680BD00BF004402588C
:10126000D80A002410040240500B00242804024035
:1012700080B58CB000AF07F11C0300221A605A60E1
:101280009A60DA601A61834BD3F8E030814A43F008
:101290001003C2F8E0307F4BD3F8E03003F01003C6
:1012A000BB61BB697B4BD3F8E0307A4A43F08003E3
:1012B000C2F8E030774BD3F8E03003F080037B6175
:1012C0007B69744BD3F8E030724A43F00403C2F8F0
:1012D000E030704BD3F8E03003F004033B613B692E
:1012E0006C4BD3F8E0306B4A43F00103C2F8E030B6
:1012F000684BD3F8E03003F00103FB60FB68654BFB
:10130000D3F8E030634A43F00203C2F8E030614BA7
:10131000D3F8E03003F00203BB60BB685D4BD3F849
:10132000E0305C4A43F00803C2F8E030594BD3F890
:10133000E03003F008037B607B68002248F208314C
:10134000554805F063FB00220C21544805F05EFB74
:1013500000220321524805F059FB00224FF480512E
:10136000504805F053FB00224FF400414E4805F071
:101370004DFB48F20813FB6101233B6200237B62B3
:101380000023BB6207F11C031946434805F076F9B8
:101390000323FB6100233B6201237B6207F11C03F3
:1013A00019463E4805F06AF90C23FB6101233B62B4
:1013B00000237B620023BB6207F11C0319463748F8
:1013C00005F05CF90323FB6101233B6200237B6290
:1013D0000023BB6207F11C031946314805F04EF9A2
:1013E0000423FB614FF444133B6202237B6207F149
:1013F0001C0319462B4805F041F94FF40073FB61BB
:1014000001233B6202237B620023BB6207F11C03C2
:101410001946214805F032F94FF48053FB6101234E
:101420003B6200237B620023BB6207F11C03194669
:101430001C4805F023F94FF40043FB6101233B6294
:1014400000237B620023BB6207F11C031946164888
:1014500005F014F900214FF0806001F07FF80021C1
:101460004FF0006001F07AF800214FF0807001F039
:1014700075F800214FF0007001F070F8002205218E
:10148000082001F039F9082001F050F900BF303789
:10149000BD4680BD004402580010025800080258A2
:1014A0000000025800040258000C025880B582B0B7
:1014B00000AF78604FF47A7010F07AFFFAE780B4EA
:1014C00083B000AF786000BF0C37BD465DF8047B89
:1014D0007047000080B582B000AF78607B681B6801
:1014E000044A934201D100F0E9FF00BF0837BD462E
:1014F00080BD00BF0010004080B400AF72B600BFD6
:1015000000BFFDE780B582B000AF0C4BD3F8F430DC
:101510000A4A43F00203C2F8F430084BD3F8F4301F
:1015200003F002037B607B6800220F216FF0010053
:1015300001F0E2F800BF0837BD4680BD0044025804
:1015400080B5BAB000AF786007F1D40300221A600A
:101550005A609A60DA601A6107F11003C022002114
:10156000184639F00BFF7B681B68374A934266D1F7
:101570004FF400424FF00003C7E904230223BB618C
:101580004023FB6108233B6208237B620223BB628A
:10159000C023FB6200233B6300237B634FF00053B7
:1015A000C7F8803007F11003184608F0DDFD034648
:1015B000002B01D0FFF7A0FF244BD3F8EC30234AD7
:1015C00043F48073C2F8EC30204BD3F8EC3003F4D2
:1015D0008073FB60FB681D4BD3F8E0301B4A43F07F
:1015E0000803C2F8E030194BD3F8E03003F00803E9
:1015F000BB60BB680323C7F8D4300223C7F8D830D8
:101600000023C7F8DC300023C7F8E0300923C7F80F
:10161000E43007F1D40319460D4805F02FF80022F5
:101620000521132001F068F8132001F07FF8002253
:101630000521152001F060F8152001F077F800BFB2
:10164000E837BD4680BD00BF00A0004000440258FE
:10165000000C025880B5BCB000AF786007F1DC0325
:1016600000221A605A609A60DA601A6107F1180362
:10167000C0220021184639F081FE7B681B68414A70
:1016800093427BD14FF008024FF00003C7E90623D5
:101690000023C7F89C3007F11803184608F064FDD2
:1016A0000346002B01D0FFF727FF374BD3F8E0307C
:1016B000354A43F00403C2F8E030334BD3F8E0304E
:1016C00003F004037B617B692F4BD3F8E0302E4A93
:1016D00043F00103C2F8E0302B4BD3F8E03003F0C5
:1016E00001033B613B694FF40073C7F8DC30122300
:1016F000C7F8E0300023C7F8E4300023C7F8E8302B
:101700000423C7F8EC3007F1DC0319461F4804F046
:10171000B5FF4FF48073C7F8DC301223C7F8E03010
:101720000023C7F8E4300023C7F8E8300423C7F8E3
:10173000EC3007F1DC031946154804F09FFF124B0B
:10174000D3F8E830104A43F40003C2F8E8300E4BF7
:10175000D3F8E83003F40003FB60FB6800220521A6
:10176000482000F0C9FF482000F0E0FF00220521DA
:10177000492000F0C1FF492000F0D8FF00BFF0373A
:10178000BD4680BD005C004000440258000802587D
:101790000000025880B5BCB000AF786007F1DC03F0
:1017A00000221A605A609A60DA601A6107F1180321
:1017B000C0220021184639F0E1FD7B681B687D4A94
:1017C000934240F0A8804FF480524FF00003C7E9E5
:1017D00006230023BB6707F11803184608F0C4FC72
:1017E0000346002B01D0FFF787FE734BD3F8F03090
:1017F000714A43F48053C2F8F0306F4BD3F8F030A5
:1018000003F480537B617B696B4BD3F8E0306A4A09
:1018100043F00103C2F8E030674BD3F8E03003F047
:1018200001033B613B69F023C7F8DC300223C7F8B2
:10183000E0300023C7F8E4300323C7F8E83005237D
:10184000C7F8EC3007F1DC0319465C4804F016FFDA
:101850005B4B5C4A1A605A4B25225A60584B002257
:101860009A60574B0022DA60554B4FF480621A6140
:10187000534B00225A61524B00229A61504B002276
:10188000DA614F4B00221A624D4B00225A624C48DB
:1018900000F05AFF0346002B01D0FFF72DFE7B68B6
:1018A000474ADA67464A7B689363474B474A1A6060
:1018B000454B26225A60444B40229A60424B0022FC
:1018C000DA60414B4FF480621A613F4B00225A614B
:1018D0003D4B00229A613C4B0022DA613A4B0022D8
:1018E0001A62394B00225A62374800F02DFF034636
:1018F000002B01D0FFF700FE7B68334A9A67324A1B
:101900007B68936300220521232000F0F5FE23204D
:1019100000F00CFF4AE07B681B682D4A934245D1DA
:101920004FF480524FF00003C7E906230023BB6742
:1019300007F11803184608F017FC0346002B01D0E6
:10194000FFF7DAFD1C4BD3F8E8301B4A43F4804321
:10195000C2F8E830184BD3F8E83003F48043FB605A
:10196000FB68154BD3F8E030134A43F00203C2F88A
:10197000E030114BD3F8E03003F00203BB60BB68EA
:101980004FF46043C7F8DC300223C7F8E03000238F
:10199000C7F8E4300023C7F8E8300523C7F8EC3077
:1019A00007F1DC0319460B4804F068FE00BFF0376E
:1019B000BD4680BD0030014000440258000002587E
:1019C00068040024A0000240E0040024B8000240A3
:1019D000003800400004025880B485B000AF786041
:1019E0007B681B68B3F1804F0ED10A4BD3F8E83007
:1019F000084A43F00103C2F8E830064BD3F8E83058
:101A000003F00103FB60FB6800BF1437BD465DF8BF
:101A1000047B70470044025880B5BEB000AF7860C8
:101A200007F1E40300221A605A609A60DA601A61D2
:101A300007F12003C0220021184639F09FFC7B6883
:101A40001B68B04A934240F0AB804FF002024FF067
:101A50000003C7E908230023C7F8983007F12003E3
:101A6000184608F081FB0346002B01D0FFF744FD28
:101A7000A54BD3F8E830A44A43F00043C2F8E8305D
:101A8000A14BD3F8E83003F00043FB61FB699E4BA8
:101A9000D3F8E0309C4A43F01003C2F8E0309A4B90
:101AA000D3F8E03003F01003BB61BB690323C7F830
:101AB000E4300223C7F8E8300023C7F8EC300023F5
:101AC000C7F8F0300823C7F8F43007F1E4031946EB
:101AD0008E4804F0D3FD8E4B8E4A1A608C4B5122F7
:101AE0005A608B4B00229A60894B0022DA60884B47
:101AF0004FF480621A61864B00225A61844B0022A7
:101B00009A61834B0022DA61814B4FF400321A62F2
:101B10007F4B00225A627E4800F016FE0346002BDF
:101B200001D0FFF7E9FC7B68794AC3F88020784A46
:101B30007B689363784B794A1A60774B52225A60DC
:101B4000754B40229A60744B0022DA60724B4FF45E
:101B500080621A61704B00225A616F4B00229A61B9
:101B60006D4B0022DA616C4B00221A626A4B002234
:101B70005A62694800F0E8FD0346002B01D0FFF7E8
:101B8000BBFC7B68644ADA67634A7B689363002224
:101B90000521532000F0B0FD532000F0C7FD7AE18D
:101BA0007B681B685E4A934240F0C6804FF001029A
:101BB0004FF00003C7E908230023C7F89C3007F162
:101BC0002003184608F0D0FA0346002B01D0FFF797
:101BD00093FC4D4BD3F8F0304B4A43F01003C2F85E
:101BE000F030494BD3F8F03003F010037B617B6990
:101BF000454BD3F8E030444A43F00103C2F8E030EB
:101C0000414BD3F8E03003F001033B613B694FF4F3
:101C1000C063C7F8E4300223C7F8E8300023C7F8F0
:101C2000EC300023C7F8F0300723C7F8F43007F191
:101C3000E40319463B4804F021FD3B4B3B4A1A6044
:101C4000394B29225A60384B00229A60364B0022C9
:101C5000DA60354B4FF480621A61334B00225A61CF
:101C6000314B00229A61304B0022DA612E4B002268
:101C70001A622D4B00225A622B4800F065FD034684
:101C8000002B01D0FFF738FC7B68274AC3F880207F
:101C9000254A7B689363264B264A1A60244B2A22E6
:101CA0005A60234B40229A60214B0022DA60204B7D
:101CB0004FF480621A611E4B00225A611C4B0022B5
:101CC0009A611B4B0022DA61194B00221A62184BF1
:101CD00000225A62164800F037FD0346002B01D05F
:101CE000FFF70AFC7B68124ADA67114A7B68936344
:101CF00000220521252000F0FFFC252000F016FD24
:101D0000C9E000BF007C00400044025800100258A7
:101D100008080024400002408008002458000240C7
:101D20000010014000000258F80800241000024092
:101D300070090024280002407B681B68584A9342BF
:101D400040F0A9804FF002024FF00003C7E90823DA
:101D50000023C7F8983007F12003184608F004FA6A
:101D60000346002B01D0FFF7C7FB4E4BD3F8E830FA
:101D70004C4A43F40033C2F8E8304A4BD3F8E83019
:101D800003F40033FB60FB68464BD3F8E030454A70
:101D900043F00103C2F8E030424BD3F8E03003F0E7
:101DA0000103BB60BB680C23C7F8E4300223C7F80B
:101DB000E8300023C7F8EC300023C7F8F0300723E1
:101DC000C7F8F43007F1E4031946374804F056FC2D
:101DD000364B374A1A60354B2B225A60334B002260
:101DE0009A60324B0022DA60304B4FF480621A6105
:101DF0002E4B00225A612D4B00229A612B4B002260
:101E0000DA612A4B00221A62284B00225A622748C4
:101E100000F09AFC0346002B01D0FFF76DFB7B68B6
:101E2000224AC3F88020214A7B689363214B224ACF
:101E30001A60204B2C225A601E4B40229A601D4B88
:101E40000022DA601B4B4FF480621A61194B0022AA
:101E50005A61184B00229A61164B0022DA61154B29
:101E600000221A62134B00225A62124800F06CFCE6
:101E70000346002B01D0FFF73FFB7B680D4ADA6772
:101E80000C4A7B68936300220521262000F034FC75
:101E9000262000F04BFC00BFF837BD4680BD00BFD8
:101EA000004400400044025800000258E8090024A1
:101EB00070000240600A00248800024080B590B0A3
:101EC00000AF78607B680F2B27D800227968362016
:101ED00000F012FC362000F029FC294A7B681360D0
:101EE000284BD3F8E830274A43F01003C2F8E83013
:101EF000244BD3F8E83003F01003FB60FB6807F1D4
:101F0000100207F114031146184608F0EBF8BB6AFB
:101F1000BB63BB6B002B06D101E001232BE008F073
:101F2000B5F8F86304E008F0B1F803465B00FB6322
:101F3000FB6B154AA2FB03239B0C013B7B63134BFA
:101F4000134A1A60114B40F2E732DA600F4A7B6B9A
:101F500053600E4B00221A610C4B00229A600B4812
:101F60000BF0CFFD0346002B04D108480BF020FEF8
:101F7000034600E0012318464037BD4680BD00BF40
:101F8000080000240044025883DE1B43D00B0024C9
:101F90000010004080B400AF00BFFDE780B400AF88
:101FA00000BFFDE780B400AF00BFFDE780B400AF25
:101FB00000BFFDE780B400AF00BFFDE780B400AF15
:101FC00000BFBD465DF8047B704780B500AF0420BC
:101FD00004F04FFD00BF80BD80B500AF024801F0A6
:101FE000DDFE00BF80BD00BFF808002480B500AF53
:101FF000024801F0D3FE00BF80BD00BF700900247D
:1020000080B500AF024801F0C9FE00BF80BD00BF2F
:102010000808002480B500AF024801F0BFFE00BFF1
:1020200080BD00BF8008002480B500AF024801F0E9
:10203000B5FE00BF80BD00BFE809002480B500AF39
:10204000024801F0ABFE00BF80BD00BF600A002463
:1020500080B500AF024801F0A1FE00BF80BD00BF07
:102060006804002480B500AF024803F083FE00BF7F
:1020700080BD00BF0C02002480B500AF024803F011
:1020800079FE00BF80BD00BF0C02002480B500AF08
:1020900002480BF009F900BF80BD00BF0003002417
:1020A00080B500AF02480CF02DFF00BF80BD00BF1F
:1020B0007006002480B500AF02480CF023FF00BF7B
:1020C00080BD00BF3C07002480B500AF024801F08E
:1020D00065FE00BF80BD00BFE004002480B500AFF6
:1020E00002480BF0DDFD00BF80BD00BFD00B002417
:1020F00080B500AF024801F051FE00BF80BD00BFB7
:10210000D80A002480B500AF024801F047FE00BFA6
:1021100080BD00BF500B002480B500AF024804F022
:10212000FDFE00BF80BD00BFAC02002480B500AF43
:10213000024804F00DFF00BF80BD00BFAC020024C8
:1021400080B500AF02480CF0DDFE00BF80BD00BFCF
:10215000A405002480B400AF01231846BD465DF8F5
:10216000047B704780B582B000AF7860396039F089
:102170001DF9034616221A604FF0FF331846083740
:10218000BD4680BD80B582B000AF78604FF0FF31B2
:102190007868FFF7E7FF00BFFDE780B586B000AFC6
:1021A000F860B9607A6000237B610AE0AFF30080D9
:1021B0000146BB685A1CBA60CAB21A707B69013307
:1021C0007B617A697B689A42F0DB7B681846183736
:1021D000BD4680BD80B586B000AFF860B9607A605A
:1021E00000237B6109E0BB685A1CBA601B78184663
:1021F000AFF300807B6901337B617A697B689A4227
:10220000F1DB7B6818461837BD4680BD80B483B0CB
:1022100000AF78604FF0FF3318460C37BD465DF8CD
:10222000047B704780B483B000AF786039603B684E
:102230004FF400525A60002318460C37BD465DF833
:10224000047B704780B483B000AF786001231846E8
:102250000C37BD465DF8047B704780B485B000AF95
:10226000F860B9607A60002318461437BD465DF8FF
:10227000047B704780B586B000AF7860144A154B78
:10228000D31A7B617B693B61134B1B68002B02D126
:10229000114B124A1A60104B1A687B6813443A6952
:1022A0009A4207D239F082F803460C221A604FF0A6
:1022B000FF3309E0084B1B68FB60074B1A687B681B
:1022C0001344054A1360FB6818461837BD4680BDA5
:1022D00000000824000400001C0C002428900224A4
:1022E00080B400AF374BD3F88830364A43F47003DC
:1022F000C2F88830344B1B6803F00F03062B07D855
:10230000314B1B6823F00F032F4A43F00703136080
:102310002E4B1B682D4A43F0010313602B4B002208
:102320001A612A4B1A682949294B13400B60264B26
:102330001B6803F00803002B07D0234B1B6823F016
:102340000F03214A43F007031360204B00229A61D8
:102350001E4B0022DA611D4B00221A621B4B1D4AE4
:102360009A621A4B1C4ADA62184B1C4A1A63174BC2
:1023700000225A63154B194A9A63144B0022DA6300
:10238000124B164A1A64114B00225A640F4B1B68F9
:102390000E4A23F4802313600C4B00221A66104B64
:1023A0001A68104B1340B3F1005F02D20E4B0122AA
:1023B0001A600E4B43F2D2021A6000BFBD465DF8B0
:1023C000047B704700ED00E00020005200440258FA
:1023D0007FEDF6EA000202020000FF018002010127
:1023E0000010005C0000FFFF088100510040005217
:1023F000DFF834D0FFF774FF0C480D490D4A002375
:1024000002E0D458C4500433C4188C42F9D30A4AA9
:102410000A4C002301E013600432A242FBD338F0DF
:10242000CBFFFEF707FB70470000082400000024E4
:10243000F0010024C4FE0308F001002428900224C7
:10244000FEE7000080B582B000AF032000F049F93C
:1024500007F072FC0246154B9B691B0A03F00F0341
:102460001349CB5C03F01F0322FA03F37B600F4B8D
:102470009B6903F00F030E4AD35C03F01F037A68D5
:1024800022FA03F30B4A13600B4A7B6813600F2098
:10249000FFF714FD0346002B01D0012302E0FFF7F4
:1024A00031F8002318460837BD4680BD0044025865
:1024B000ACE00308040000240000002480B400AF56
:1024C000064B1B781A46064B1B681344044A1360DC
:1024D00000BFBD465DF8047B704700BF0C000024C0
:1024E000200C002480B400AF034B1B681846BD4687
:1024F0005DF8047B704700BF200C002480B584B0D9
:1025000000AF7860FFF7EEFFB8607B68FB60FB68A8
:10251000B3F1FF3F05D00A4B1B781A46FB68134402
:10252000FB6000BFFFF7DEFF0246BB68D31AFA6804
:102530009A42F7D800BF00BF1037BD4680BD00BF2C
:102540000C00002480B400AF034B1B681B0C184622
:10255000BD465DF8047B70470010005C80B483B01A
:1025600000AF78603960074B5A687B68DB431A40DC
:1025700004493B6813434B6000BF0C37BD465DF810
:10258000047B70470004005880B485B000AF7860C9
:102590007B6803F00703FB600B4BDB68BB60BA682A
:1025A0004FF6FF031340BB60FB681A02BB681A4377
:1025B000064B1343BB60044ABB68D36000BF1437AB
:1025C000BD465DF8047B704700ED00E00000FA05B1
:1025D00080B400AF044BDB681B0A03F00703184606
:1025E000BD465DF8047B704700ED00E080B483B029
:1025F00000AF0346FB80B7F90630002B0BDBFB88EE
:1026000003F01F020749B7F906305B09012000FA01
:1026100002F241F8232000BF0C37BD465DF8047B71
:10262000704700BF00E100E080B483B000AF034614
:102630003960FB80B7F90630002B0ADB3B68DAB261
:102640000C49B7F906301201D2B20B4483F80023CB
:102650000AE03B68DAB20849FB8803F00F03043B49
:102660001201D2B20B441A7600BF0C37BD465DF89A
:10267000047B704700E100E000ED00E080B489B029
:1026800000AFF860B9607A60FB6803F00703FB6194
:10269000FB69C3F10703042B28BF0423BB61FB695B
:1026A0000433062B02D9FB69033B00E000237B6166
:1026B0004FF0FF32BB6902FA03F3DA43BB681A40FA
:1026C0007B699A404FF0FF317B6901FA03F3D943EC
:1026D0007B680B40134318462437BD465DF8047BE6
:1026E000704780B582B000AF78607868FFF74CFF24
:1026F00000BF0837BD4680BD80B586B000AF034639
:10270000B9607A60FB81FFF763FF78617A68B96826
:102710007869FFF7B3FF0246B7F90E301146184645
:10272000FFF782FF00BF1837BD4680BD80B582B07D
:1027300000AF0346FB80B7F906301846FFF756FF97
:1027400000BF0837BD4680BD80B586B000AF786059
:10275000FFF7C8FE38617B68002B01D1012316E327
:102760007B681B68664A93424AD07B681B68654A4F
:10277000934245D07B681B68634A934240D07B6894
:102780001B68624A93423BD07B681B68604A934255
:1027900036D07B681B685F4A934231D07B681B68E8
:1027A0005D4A93422CD07B681B685C4A934227D0D9
:1027B0007B681B685A4A934222D07B681B68594A3F
:1027C00093421DD07B681B68574A934218D07B68A0
:1027D0001B68564A934213D07B681B68544A934245
:1027E0000ED07B681B68534A934209D07B681B68F4
:1027F000514A934204D07B681B68504A934201D1EE
:10280000012300E00023002B00F03B817B680222C3
:1028100083F835207B68002283F834207B681B68AE
:10282000374A93424AD07B681B68364A934245D068
:102830007B681B68344A934240D07B681B68334AEC
:1028400093423BD07B681B68314A934236D07B6809
:102850001B68304A934231D07B681B682E4A9342F2
:102860002CD07B681B682D4A934227D07B681B685D
:102870002B4A934222D07B681B682A4A93421DD080
:102880007B681B68284A934218D07B681B68274ADC
:10289000934213D07B681B68254A93420ED07B6815
:1028A0001B68244A934209D07B681B68224A9342E2
:1028B00004D07B681B68214A934208D17B681B685F
:1028C0001A687B681B6822F001021A6007E07B68C7
:1028D0001B681A687B681B6822F001021A602FE0EF
:1028E000FFF700FE02463B69D31A052B28D97B6807
:1028F00020225A657B68032283F83520012346E2B3
:1029000010000240280002404000024058000240EF
:102910007000024088000240A0000240B80002405F
:1029200010040240280402404004024058040240BF
:102930007004024088040240A0040240B80402402F
:102940007B681B681B6803F00103002BC8D17B6800
:102950001B681B687B617A69834B13407B617B68D2
:102960009A687B68DB681A437B681B691A437B683B
:102970005B691A437B689B691A437B68DB691A436E
:102980007B681B6A13437A6913437B617B685B6ACC
:10299000042B07D17B68DA6A7B681B6B13437A6967
:1029A00013437B61714B1A68714B1340B3F1005FA5
:1029B00028D37B685B68282B03D97B685B682E2B48
:1029C00017D97B685B683E2B03D97B685B68422B19
:1029D0000FD97B685B68462B03D97B685B68482B03
:1029E00007D97B685B684E2B05D97B685B68522BE7
:1029F00001D8012300E00023002B03D07B6943F4BE
:102A000080137B617B681B687A691A607B681B682E
:102A10005B697B617B6923F007037B617B685B6A91
:102A20007A6913437B617B685B6A042B17D17B68EF
:102A30009B6A7A6913437B617B68DB6A002B0ED04B
:102A4000786802F0A7FB0346002B08D07B68402281
:102A50005A657B68012283F83520012397E17B6862
:102A60001B687A695A61786802F0E2FA0346BB6033
:102A70007B68DB6D03F01F033F229A40BB689A60BE
:102A8000CDE07B681B683B4A934222D07B681B6881
:102A9000394A93421DD07B681B68384A934218D04C
:102AA0007B681B68364A934213D07B681B68354AA3
:102AB00093420ED07B681B68334A934209D07B68EF
:102AC0001B68324A934204D07B681B68304A9342A9
:102AD00001D1012300E00023002B00F097807B68E8
:102AE0001B68244A934221D07B681B68224A934288
:102AF0001CD07B681B68214A934217D07B681B68F7
:102B00001F4A934212D07B681B681E4A93420DD025
:102B10007B681B681C4A934208D07B681B681B4A71
:102B2000934203D07B681B68194A93427B68022258
:102B300083F835207B68002283F834207B681B688B
:102B40001B687B617A69134B13407B617B689B68D0
:102B5000402B21D07B689B68802B02D14FF48043AF
:102B60001BE0002319E000BF3F8010FE0010005C56
:102B70000000FFFF085402581C54025830540258F9
:102B800044540258585402586C5402588054025805
:102B9000945402580F00FEFF10237A68D268D208BE
:102BA0001A437B681B69DB081A437B685B69DB0897
:102BB0001A437B689B69DB081A437B68DB69DB0887
:102BC0001A437B681B6A1B0913437A6913437B61B1
:102BD0007B681B687A691A607B681B681A466E4BB3
:102BE00013446E4AA2FB03231B099A007B68DA6533
:102BF000786802F01DFA0346FB607B68DB6D03F02A
:102C00001F0301229A40FB685A6008E07B6840225B
:102C10005A657B68032283F835200123B7E07B687F
:102C20001B685F4A934272D07B681B685D4A93427F
:102C30006DD07B681B685C4A934268D07B681B68D8
:102C40005A4A934263D07B681B68594A93425ED0CC
:102C50007B681B68574A934259D07B681B68564A69
:102C6000934254D07B681B68544A93424FD07B6890
:102C70001B68534A93424AD07B681B68514A93426F
:102C800045D07B681B68504A934240D07B681B68E4
:102C90004E4A93423BD07B681B684D4A934236D0E4
:102CA0007B681B684B4A934231D07B681B684A4A59
:102CB00093422CD07B681B68484A934227D07B689C
:102CC0001B68474A934222D07B681B68454A93425F
:102CD0001DD07B681B68444A934218D07B681B68F0
:102CE000424A934213D07B681B68414A93420ED0FC
:102CF0007B681B683F4A934209D07B681B683E4A49
:102D0000934204D07B681B683C4A934201D1012363
:102D100000E00023002B32D0786802F0B7FA7B681D
:102D20009B68802B02D17B6800225A607B685A68BE
:102D30007B681B6ED2B21A607B685B6E7A68926E9B
:102D40005A607B685B68002B10D07B685B68082B3F
:102D50000CD8786802F034FB7B68DB6E00221A60C6
:102D60007B681B6F7A68526F5A6008E07B680022AC
:102D7000DA667B6800221A677B6800225A677B68E4
:102D800000225A657B68012283F83520002318460B
:102D90001837BD4680BD00BFF8ABFDA7CDCCCCCC6D
:102DA000100002402800024040000240580002404B
:102DB0007000024088000240A0000240B8000240BB
:102DC000100402402804024040040240580402401B
:102DD0007004024088040240A0040240B80402408B
:102DE000085402581C540258305402584454025893
:102DF000585402586C540258805402589454025843
:102E000080B586B000AFF860B9607A603B6000239F
:102E1000FB75FB68002B01D1012326E2FB6893F8C8
:102E20003430012B01D102231FE2FB68012283F819
:102E30003420FB6893F83530DBB2012B40F00A8276
:102E4000FB68022283F83520FB6800225A65FB6884
:102E50001B68684A93424AD0FB681B68664A9342E3
:102E600045D0FB681B68654A934240D0FB681B68ED
:102E7000634A93423BD0FB681B68624A934236D058
:102E8000FB681B68604A934231D0FB681B685F4A4D
:102E900093422CD0FB681B685D4A934227D0FB68A5
:102EA0001B685C4A934222D0FB681B685A4A9342D3
:102EB0001DD0FB681B68594A934218D0FB681B68F9
:102EC000574A934213D0FB681B68564A93420ED070
:102ED000FB681B68544A934209D0FB681B68534A3D
:102EE000934204D0FB681B68514A934208D1FB68A7
:102EF0001B681A68FB681B6822F001021A6007E071
:102F0000FB681B681A68FB681B6822F001021A60E4
:102F10003B687A68B968F86801F0DEFEFB681B68F8
:102F2000344A93424AD0FB681B68334A934245D0E7
:102F3000FB681B68314A934240D0FB681B68304AEB
:102F400093423BD0FB681B682E4A934236D0FB6805
:102F50001B682D4A934231D0FB681B682B4A934271
:102F60002CD0FB681B682A4A934227D0FB681B6859
:102F7000284A934222D0FB681B68274A93421DD0FF
:102F8000FB681B68254A934218D0FB681B68244ADB
:102F9000934213D0FB681B68224A93420ED0FB6811
:102FA0001B68214A934209D0FB681B681F4A934261
:102FB00004D0FB681B681E4A934201D1012300E044
:102FC0000023002B36D0FB681B681B6823F01E0211
:102FD000FB681B6842F016021A60FB681B6C002B32
:102FE0003ED0FB681B681A68FB681B6842F0080249
:102FF0001A6035E010000240280002404000024004
:10300000580002407000024088000240A0000240C8
:10301000B80002401004024028040240400402406C
:10302000580402407004024088040240A004024098
:10303000B8040240FB681B681B6823F00E02FB68A3
:103040001B6842F00A021A60FB681B6C002B07D059
:10305000FB681B681A68FB681B6842F004021A6070
:10306000FB681B68834A934272D0FB681B68824AE4
:1030700093426DD0FB681B68804A934268D0FB681E
:103080001B687F4A934263D0FB681B687D4A93426A
:103090005ED0FB681B687C4A934259D0FB681B6872
:1030A0007A4A934254D0FB681B68794A93424FD0C6
:1030B000FB681B68774A93424AD0FB681B68764AD4
:1030C000934245D0FB681B68744A934240D0FB682A
:1030D0001B68734A93423BD0FB681B68714A93425A
:1030E00036D0FB681B68704A934231D0FB681B687E
:1030F0006E4A93422CD0FB681B686D4A934227D0DE
:10310000FB681B686B4A934222D0FB681B686A4AC3
:1031100093421DD0FB681B68684A934218D0FB6835
:103120001B68674A934213D0FB681B68654A934249
:103130000ED0FB681B68644A934209D0FB681B6889
:10314000624A934204D0FB681B68614A934201D1F2
:10315000012300E00023002B1AD0FB681B6E1B68C4
:1031600003F48033002B07D0FB681B6E1A68FB68E2
:103170001B6E42F480721A60FB68DB6E002B07D076
:10318000FB68DB6E1A68FB68DB6E42F480721A60C3
:10319000FB681B68374A93424AD0FB681B68364A73
:1031A000934245D0FB681B68344A934240D0FB6889
:1031B0001B68334A93423BD0FB681B68314A9342F9
:1031C00036D0FB681B68304A934231D0FB681B68DD
:1031D0002E4A93422CD0FB681B682D4A934227D07D
:1031E000FB681B682B4A934222D0FB681B682A4A63
:1031F00093421DD0FB681B68284A934218D0FB6895
:103200001B68274A934213D0FB681B68254A9342E8
:103210000ED0FB681B68244A934209D0FB681B68E8
:10322000224A934204D0FB681B68214A934208D18A
:10323000FB681B681A68FB681B6842F001021A6091
:1032400012E0FB681B681A68FB681B6842F0010209
:103250001A6009E0FB684FF400625A65FB680022BF
:1032600083F834200123FB75FB7D18461837BD46D3
:1032700080BD00BF10000240280002404000024014
:10328000580002407000024088000240A000024046
:10329000B8000240100402402804024040040240EA
:1032A000580402407004024088040240A004024016
:1032B000B8040240085402581C54025830540258B2
:1032C00044540258585402586C54025880540258BE
:1032D0009454025880B586B000AF7860FFF702F9C9
:1032E00038617B68002B01D10123DCE27B6893F815
:1032F0003530DBB2022B08D07B6880225A657B68B0
:10330000002283F834200123CDE27B681B68764AD3
:1033100093424AD07B681B68744A934245D07B68CD
:103320001B68734A934240D07B681B68714A934282
:103330003BD07B681B68704A934236D07B681B6821
:103340006E4A934231D07B681B686D4A93422CD001
:103350007B681B686B4A934227D07B681B686A4A6C
:10336000934222D07B681B68684A93421DD07B68D9
:103370001B68674A934218D07B681B68654A934272
:1033800013D07B681B68644A93420ED07B681B682D
:10339000624A934209D07B681B68614A934204D019
:1033A0007B681B685F4A934201D1012300E0002340
:1033B000002B13D07B681B681A687B681B6822F09F
:1033C0001E021A607B681B685A697B681B6822F0C2
:1033D00080025A617B681B687B610AE07B681B681E
:1033E0001A687B681B6822F00E021A607B681B68F3
:1033F0007B617B681B683C4A934272D07B681B6888
:103400003A4A93426DD07B681B68394A934268D030
:103410007B681B68374A934263D07B681B68364AD7
:1034200093425ED07B681B68344A934259D07B68D4
:103430001B68334A934254D07B681B68314A9342DD
:103440004FD07B681B68304A93424AD07B681B6828
:103450002E4A934245D07B681B682D4A934240D048
:103460007B681B682B4A93423BD07B681B682A4AC7
:10347000934236D07B681B68284A934231D07B68E0
:103480001B68274A93422CD07B681B68254A9342CD
:1034900027D07B681B68244A934222D07B681B6834
:1034A000224A93421DD07B681B68214A934218D060
:1034B0007B681B681F4A934213D07B681B681E4AB7
:1034C00093420ED07B681B681C4A934209D07B68EC
:1034D0001B681B4A934204D07B681B68194A9342BD
:1034E00032D1012331E000BF100002402800024029
:1034F0004000024058000240700002408800024034
:10350000A0000240B800024010040240280402401B
:103510004004024058040240700402408804024003
:10352000A0040240B8040240085402581C54025837
:103530003054025844540258585402586C5402589B
:1035400080540258945402580023002B07D07B6803
:103550001B6E1A687B681B6E22F480721A607B688F
:103560001B686D4A93424AD07B681B686B4A934242
:1035700045D07B681B686A4A934240D07B681B68D1
:10358000684A93423BD07B681B68674A934236D0B7
:103590007B681B68654A934231D07B681B68644A2C
:1035A00093422CD07B681B68624A934227D07B6889
:1035B0001B68614A934222D07B681B685F4A934232
:1035C0001DD07B681B685E4A934218D07B681B68DD
:1035D0005C4A934213D07B681B685B4A93420ED0CF
:1035E0007B681B68594A934209D07B681B68584A1C
:1035F000934204D07B681B68564A934208D17B688B
:103600001B681A687B681B6822F001021A6007E0D9
:103610007B681B681A687B681B6822F001021A60CD
:1036200013E0FEF75FFF02463B69D31A052B0CD966
:103630007B6820225A657B68032283F835207B68EB
:10364000002283F8342001232DE17B691B6803F0FD
:103650000103002BE5D17B681B682F4A93424AD0B7
:103660007B681B682D4A934245D07B681B682C4AB7
:10367000934240D07B681B682A4A93423BD07B68C8
:103680001B68294A934236D07B681B68274A9342BD
:1036900031D07B681B68264A93422CD07B681B681C
:1036A000244A934227D07B681B68234A934222D046
:1036B0007B681B68214A93421DD07B681B68204AA7
:1036C000934218D07B681B681E4A934213D07B68D4
:1036D0001B681D4A93420ED07B681B681B4A9342AD
:1036E00009D07B681B681A4A934204D07B681B6828
:1036F000184A934201D1012300E00023002B2BD074
:103700007B689B6DBB607B68DB6D03F01F033F2212
:103710009A40BB689A602AE01000024028000240EC
:103720004000024058000240700002408800024001
:10373000A0000240B80002401004024028040240E9
:1037400040040240580402407004024088040240D1
:10375000A0040240B80402407B689B6DFB607B685C
:10376000DB6D03F01F0301229A40FB685A607B68FF
:103770001B684F4A934272D07B681B684D4A934244
:103780006DD07B681B684C4A934268D07B681B688D
:103790004A4A934263D07B681B68494A93425ED091
:1037A0007B681B68474A934259D07B681B68464A2E
:1037B000934254D07B681B68444A93424FD07B6845
:1037C0001B68434A93424AD07B681B68414A934234
:1037D00045D07B681B68404A934240D07B681B6899
:1037E0003E4A93423BD07B681B683D4A934236D0A9
:1037F0007B681B683B4A934231D07B681B683A4A1E
:1038000093422CD07B681B68384A934227D07B6850
:103810001B68374A934222D07B681B68354A934223
:103820001DD07B681B68344A934218D07B681B68A4
:10383000324A934213D07B681B68314A93420ED0C0
:103840007B681B682F4A934209D07B681B682E4A0D
:10385000934204D07B681B682C4A934201D1012318
:1038600000E00023002B15D07B685B6E7A68926EB7
:103870005A607B68DB6E002B0CD07B68DB6E1A68AD
:103880007B68DB6E22F480721A607B681B6F7A683B
:10389000526F5A607B68012283F835207B680022D2
:1038A00083F83420002318461837BD4680BD00BF7A
:1038B0001000024028000240400002405800024030
:1038C0007000024088000240A0000240B8000240A0
:1038D0001004024028040240400402405804024000
:1038E0007004024088040240A0040240B804024070
:1038F000085402581C540258305402584454025878
:10390000585402586C540258805402589454025827
:1039100080B584B000AF78607B68002B01D10123B3
:1039200037E27B6893F83530DBB2022B04D07B683A
:1039300080225A6501232CE27B681B685C4A934213
:103940004AD07B681B685B4A934245D07B681B6802
:10395000594A934240D07B681B68584A93423BD0F7
:103960007B681B68564A934236D07B681B68554A71
:10397000934231D07B681B68534A93422CD07B68BA
:103980001B68524A934227D07B681B68504A934277
:1039900022D07B681B684F4A93421DD07B681B680E
:1039A0004D4A934218D07B681B684C4A934213D00F
:1039B0007B681B684A4A93420ED07B681B68494A61
:1039C000934209D07B681B68474A934204D07B68C6
:1039D0001B68464A934201D1012300E00023002BDB
:1039E00000F086807B68042283F835207B681B68A2
:1039F0002F4A93424AD07B681B682E4A934245D097
:103A00007B681B682C4A934240D07B681B682B4A1A
:103A100093423BD07B681B68294A934236D07B682F
:103A20001B68284A934231D07B681B68264A934220
:103A30002CD07B681B68254A934227D07B681B6883
:103A4000234A934222D07B681B68224A93421DD0AE
:103A50007B681B68204A934218D07B681B681F4A0A
:103A6000934213D07B681B681D4A93420ED07B683B
:103A70001B681C4A934209D07B681B681A4A934210
:103A800004D07B681B68194A934208D17B681B6885
:103A90001A687B681B6822F001021A6078E17B6873
:103AA0001B681A687B681B6822F001021A606FE1CC
:103AB000100002402800024040000240580002402E
:103AC0007000024088000240A0000240B80002409E
:103AD00010040240280402404004024058040240FE
:103AE0007004024088040240A0040240B80402406E
:103AF0007B681B681A687B681B6822F00E021A60DC
:103B00007B681B686C4A93424AD07B681B686B4A8F
:103B1000934245D07B681B68694A934240D07B68DA
:103B20001B68684A93423BD07B681B68664A934295
:103B300036D07B681B68654A934231D07B681B682E
:103B4000634A93422CD07B681B68624A934227D019
:103B50007B681B68604A934222D07B681B685F4A7F
:103B600093421DD07B681B685D4A934218D07B68E6
:103B70001B685C4A934213D07B681B685A4A934285
:103B80000ED07B681B68594A934209D07B681B683A
:103B9000574A934204D07B681B68564A934208D127
:103BA0007B681B681A687B681B6822F001021A6038
:103BB00007E07B681B681A687B681B6822F00102BB
:103BC0001A607B681B683C4A934272D07B681B6812
:103BD0003A4A93426DD07B681B68394A934268D059
:103BE0007B681B68374A934263D07B681B68364A00
:103BF00093425ED07B681B68344A934259D07B68FD
:103C00001B68334A934254D07B681B68314A934205
:103C10004FD07B681B68304A93424AD07B681B6850
:103C20002E4A934245D07B681B682D4A934240D070
:103C30007B681B682B4A93423BD07B681B682A4AEF
:103C4000934236D07B681B68284A934231D07B6808
:103C50001B68274A93422CD07B681B68254A9342F5
:103C600027D07B681B68244A934222D07B681B685C
:103C7000224A93421DD07B681B68214A934218D088
:103C80007B681B681F4A934213D07B681B681E4ADF
:103C900093420ED07B681B681C4A934209D07B6814
:103CA0001B681B4A934204D07B681B68194A9342E5
:103CB00032D1012331E000BF100002402800024051
:103CC000400002405800024070000240880002405C
:103CD000A0000240B8000240100402402804024044
:103CE000400402405804024070040240880402402C
:103CF000A0040240B8040240085402581C54025860
:103D00003054025844540258585402586C540258C3
:103D100080540258945402580023002B28D07B680A
:103D20001B6E1A687B681B6E22F480721A607B68B7
:103D30009B6DFB607B68DB6D03F01F0301229A40E3
:103D4000FB685A607B685B6E7A68926E5A607B682B
:103D5000DB6E002B0CD07B68DB6E1A687B68DB6E39
:103D600022F480721A607B681B6F7A68526F5A6007
:103D70007B68012283F835207B68002283F8342099
:103D80007B681B6D002B03D07B681B6D78689847A0
:103D9000002318461037BD4680BD00BF80B58AB0ED
:103DA00000AF78600023FB60674B1B68674AA2FB8B
:103DB00003239B0A7B627B689B6D3B627B689B6DE8
:103DC000FB613B6A1B68BB61FB691B687B617B68AD
:103DD0001B685F4A93424AD07B681B685D4A9342E6
:103DE00045D07B681B685C4A934240D07B681B6867
:103DF0005A4A93423BD07B681B68594A934236D05B
:103E00007B681B68574A934231D07B681B68564ACF
:103E100093422CD07B681B68544A934227D07B681E
:103E20001B68534A934222D07B681B68514A9342D5
:103E30001DD07B681B68504A934218D07B681B6872
:103E40004E4A934213D07B681B684D4A93420ED072
:103E50007B681B684B4A934209D07B681B684A4ABF
:103E6000934204D07B681B68484A934201D10123E6
:103E700000E00023002B00F02B847B68DB6D03F057
:103E80001F0308229A40BB691340002B00F0A28058
:103E90007B681B682E4A93424AD07B681B682D4A78
:103EA000934245D07B681B682B4A934240D07B6885
:103EB0001B682A4A93423BD07B681B68284A93427E
:103EC00036D07B681B68274A934231D07B681B68D9
:103ED000254A93422CD07B681B68244A934227D002
:103EE0007B681B68224A934222D07B681B68214A68
:103EF00093421DD07B681B681F4A934218D07B6891
:103F00001B681E4A934213D07B681B681C4A93426D
:103F10000ED07B681B681B4A934209D07B681B68E4
:103F2000194A934204D07B681B68184A93422FD1E8
:103F30007B681B681B6803F00403002B14BF01237C
:103F40000023DBB22EE000BF00000024B5814E1B31
:103F50001000024028000240400002405800024089
:103F60007000024088000240A0000240B8000240F9
:103F70001004024028040240400402405804024059
:103F80007004024088040240A0040240B8040240C9
:103F90007B681B681B6803F00803002B14BF012318
:103FA0000023DBB2002B15D07B681B681A687B6886
:103FB0001B6822F004021A607B68DB6D03F01F03AC
:103FC00008229A403B6A9A607B685B6D43F001026D
:103FD0007B685A657B68DB6D03F01F03BA6922FAC0
:103FE00003F303F00103002B6ED07B681B68694A62
:103FF00093424AD07B681B68674A934245D07B68EE
:104000001B68664A934240D07B681B68644A9342AF
:104010003BD07B681B68634A934236D07B681B6841
:10402000614A934231D07B681B68604A93422CD02E
:104030007B681B685E4A934227D07B681B685D4A99
:10404000934222D07B681B685B4A93421DD07B68F9
:104050001B685A4A934218D07B681B68584A93429F
:1040600013D07B681B68574A93420ED07B681B684D
:10407000554A934209D07B681B68544A934204D046
:104080007B681B68524A93420AD17B681B685B6954
:1040900003F08003002B14BF01230023DBB203E0F5
:1040A0007B681B681B680023002B0DD07B68DB6DD1
:1040B00003F01F0301229A403B6A9A607B685B6DA4
:1040C00043F002027B685A657B68DB6D03F01F03D7
:1040D00004229A40BB691340002B00F08F807B685C
:1040E0001B682C4A93424AD07B681B682A4A934239
:1040F00045D07B681B68294A934240D07B681B6887
:10410000274A93423BD07B681B68264A934236D0AD
:104110007B681B68244A934231D07B681B68234A22
:1041200093422CD07B681B68214A934227D07B683E
:104130001B68204A934222D07B681B681E4A934228
:104140001DD07B681B681D4A934218D07B681B6892
:104150001B4A934213D07B681B681A4A93420ED0C5
:104160007B681B68184A934209D07B681B68174A12
:10417000934204D07B681B68154A93422AD17B681E
:104180001B681B6803F00203002B14BF01230023EC
:10419000DBB223E010000240280002404000024051
:1041A000580002407000024088000240A000024017
:1041B000B8000240100402402804024040040240BB
:1041C000580402407004024088040240A0040240E7
:1041D000B80402407B681B681B680023002B0DD0CD
:1041E0007B68DB6D03F01F0304229A403B6A9A60F0
:1041F0007B685B6D43F004027B685A657B68DB6D0E
:1042000003F01F0310229A40BB691340002B00F0FB
:10421000A6807B681B68854A93424AD07B681B68EE
:10422000834A934245D07B681B68824A934240D0C0
:104230007B681B68804A93423BD07B681B687F4A3F
:10424000934236D07B681B687D4A934231D07B68AD
:104250001B687C4A93422CD07B681B687A4A934245
:1042600027D07B681B68794A934222D07B681B6801
:10427000774A93421DD07B681B68764A934218D0D8
:104280007B681B68744A934213D07B681B68734A2F
:1042900093420ED07B681B68714A934209D07B68B9
:1042A0001B68704A934204D07B681B686E4A934235
:1042B0000AD17B681B681B6803F00803002B14BF3E
:1042C00001230023DBB209E07B681B681B6803F055
:1042D0000403002B14BF01230023DBB2002B3ED0CC
:1042E0007B68DB6D03F01F0310229A403B6A9A60E3
:1042F0007B681B681B6803F48023002B18D07B6845
:104300001B681B6803F40023002B08D17B681B6C1F
:10431000002B24D07B681B6C786898471FE07B6873
:104320009B6C002B1BD07B689B6C7868984716E0D1
:104330007B681B681B6803F48073002B07D17B68C4
:104340001B681A687B681B6822F008021A607B6889
:104350001B6C002B03D07B681B6C786898477B68CC
:10436000DB6D03F01F0320229A40BB691340002B32
:1043700000F010817B681B682C4A93424AD07B680E
:104380001B682B4A934245D07B681B68294A93429D
:1043900040D07B681B68284A93423BD07B681B68EF
:1043A000264A934236D07B681B68254A934231D017
:1043B0007B681B68234A93422CD07B681B68224A87
:1043C000934227D07B681B68204A934222D07B68A7
:1043D0001B681F4A93421DD07B681B681D4A93428D
:1043E00018D07B681B681C4A934213D07B681B68FB
:1043F0001A4A93420ED07B681B68194A934209D02F
:104400007B681B68174A934204D07B681B68164A76
:1044100093422BD17B681B681B6803F01003002BB1
:1044200014BF01230023DBB22AE000BF10000240CA
:104430002800024040000240580002407000024044
:1044400088000240A0000240B80002401004024070
:104450002804024040040240580402407004024014
:1044600088040240A0040240B80402407B681B6834
:104470001B6803F00203002B14BF01230023DBB2EF
:10448000002B00F087807B68DB6D03F01F03202288
:104490009A403B6A9A607B6893F83530DBB2042B14
:1044A00039D17B681B681A687B681B6822F016028A
:1044B0001A607B681B685A697B681B6822F080025F
:1044C0005A617B681B6C002B03D17B689B6C002BB3
:1044D00007D07B681B681A687B681B6822F008029B
:1044E0001A607B68DB6D03F01F033F229A403B6A32
:1044F0009A607B68012283F835207B68002283F86C
:1045000034207B681B6D002B00F04A837B681B6D99
:104510007868984744E37B681B681B6803F4802332
:10452000002B18D07B681B681B6803F40023002B4A
:1045300008D17B685B6C002B2CD07B685B6C786847
:10454000984727E07B68DB6B002B23D07B68DB6B15
:10455000786898471EE07B681B681B6803F48073CB
:10456000002B0FD17B681B681A687B681B6822F0E0
:1045700010021A607B68012283F835207B680022D4
:1045800083F834207B68DB6B002B03D07B68DB6B0C
:10459000786898477B685B6D002B00F006837B682A
:1045A0005B6D03F00103002B00F088807B68042220
:1045B00083F835207B681B687A4A93424AD07B682F
:1045C0001B68794A934245D07B681B68774A9342BF
:1045D00040D07B681B68764A93423BD07B681B685F
:1045E000744A934236D07B681B68734A934231D039
:1045F0007B681B68714A93422CD07B681B68704AA9
:10460000934227D07B681B686E4A934222D07B6816
:104610001B686D4A93421DD07B681B686B4A9342AE
:1046200018D07B681B686A4A934213D07B681B686A
:10463000684A93420ED07B681B68674A934209D050
:104640007B681B68654A934204D07B681B68644A98
:10465000934208D17B681B681A687B681B6822F04C
:1046600001021A6007E07B681B681A687B681B6898
:1046700022F001021A60FB680133FB607A6A9A42F9
:1046800007D37B681B681B6803F00103002BF2D182
:1046900000E000BF7B681B681B6803F00103002B70
:1046A00004D07B68032283F8352003E07B68012275
:1046B00083F835207B68002283F834207B68DB6C2C
:1046C000002B00F072827B68DB6C786898476CE2A4
:1046D0007B681B68434A934222D07B681B68424A2E
:1046E00093421DD07B681B68404A934218D07B6878
:1046F0001B683F4A934213D07B681B683D4A934234
:104700000ED07B681B683C4A934209D07B681B68CB
:104710003A4A934204D07B681B68394A934201D1DC
:10472000012300E00023002B00F03F827B681B6820
:104730001B683B617B68DB6D03F01F0304229A401A
:104740007B691340002B00F0CD803B6903F004032C
:10475000002B00F0C7807B68DB6D03F01F03042291
:104760009A40FB695A603B6903F40043002B49D02F
:104770003B6903F48033002B09D17B689B6C002BD1
:1047800000F010827B689B6C786898470AE27B682F
:104790001B6C002B00F006827B681B6C78689847C6
:1047A00000E200BF1000024028000240400002402A
:1047B000580002407000024088000240A000024001
:1047C000B8000240100402402804024040040240A5
:1047D000580402407004024088040240A0040240D1
:1047E000B8040240085402581C540258305402586D
:1047F00044540258585402586C5402588054025879
:10480000945402583B6903F02003002B60D17B686D
:104810001B687F4A93424AD07B681B687D4A93425B
:1048200045D07B681B687C4A934240D07B681B68FC
:104830007A4A93423BD07B681B68794A934236D0D0
:104840007B681B68774A934231D07B681B68764A45
:1048500093422CD07B681B68744A934227D07B68B4
:104860001B68734A934222D07B681B68714A93424B
:104870001DD07B681B68704A934218D07B681B6808
:104880006E4A934213D07B681B686D4A93420ED0E8
:104890007B681B686B4A934209D07B681B686A4A35
:1048A000934204D07B681B68684A934208D17B68B6
:1048B0001B681A687B681B6822F008021A6007E010
:1048C0007B681B681A687B681B6822F004021A6008
:1048D0007B681B6C002B00F065817B681B6C786823
:1048E00098475FE17B68DB6D03F01F0302229A406B
:1048F0007B691340002B00F0C5803B6903F0020385
:10490000002B00F0BF807B68DB6D03F01F030222E9
:104910009A40FB695A603B6903F40043002B18D0AE
:104920003B6903F48033002B09D17B685B6C002B5F
:1049300000F03A817B685B6C7868984734E17B686B
:10494000DB6B002B00F030817B68DB6B786898476D
:104950002AE13B6903F02003002B40F089807B684B
:104960001B682B4A93424AD07B681B68294A9342B2
:1049700045D07B681B68284A934240D07B681B68FF
:10498000264A93423BD07B681B68254A934236D027
:104990007B681B68234A934231D07B681B68224A9C
:1049A00093422CD07B681B68204A934227D07B68B7
:1049B0001B681F4A934222D07B681B681D4A9342A2
:1049C0001DD07B681B681C4A934218D07B681B680B
:1049D0001A4A934213D07B681B68194A93420ED03F
:1049E0007B681B68174A934209D07B681B68164A8C
:1049F000934204D07B681B68144A934228D17B6899
:104A00001B681A687B681B6822F014021A6027E092
:104A100010000240280002404000024058000240BE
:104A20007000024088000240A0000240B80002402E
:104A3000100402402804024040040240580402408E
:104A40007004024088040240A0040240B8040240FE
:104A50007B681B681A687B681B6822F00A021A6070
:104A60007B68012283F835207B68002283F834209C
:104A70007B68DB6B002B00F097807B68DB6B7868D2
:104A8000984791E07B68DB6D03F01F0308229A4092
:104A90007B691340002B00F088803B6903F008031A
:104AA000002B00F082807B681B68414A93424AD009
:104AB0007B681B683F4A934245D07B681B683E4A2F
:104AC000934240D07B681B683C4A93423BD07B6852
:104AD0001B683B4A934236D07B681B68394A934235
:104AE00031D07B681B68384A93422CD07B681B68A6
:104AF000364A934227D07B681B68354A934222D0BE
:104B00007B681B68334A93421DD07B681B68324A1E
:104B1000934218D07B681B68304A934213D07B685D
:104B20001B682F4A93420ED07B681B682D4A934224
:104B300009D07B681B682C4A934204D07B681B68B1
:104B40002A4A934208D17B681B681A687B681B68F5
:104B500022F01C021A6007E07B681B681A687B68F9
:104B60001B6822F00E021A607B68DB6D03F01F03E6
:104B700001229A40FB695A607B6801225A657B6872
:104B8000012283F835207B68002283F834207B687B
:104B9000DB6C002B09D07B68DB6C7868984704E0FD
:104BA00000BF02E000BF00E000BF2837BD4680BD67
:104BB000100002402800024040000240580002401D
:104BC0007000024088000240A0000240B80002408D
:104BD00010040240280402404004024058040240ED
:104BE0007004024088040240A0040240B80402405D
:104BF00080B487B000AFF8600B467A60FB72002388
:104C0000FB75FB68002B01D1012345E0FB6893F89D
:104C10003430012B01D102233EE0FB68012283F8EE
:104C20003420FB6893F83530DBB2012B2DD1FB7AB1
:104C3000052B27D801A252F823F000BF554C0008DD
:104C40005D4C0008654C00086D4C0008754C000870
:104C50007D4C0008FB687A68DA6318E0FB687A68C4
:104C60001A6414E0FB687A685A6410E0FB687A689A
:104C70009A640CE0FB687A68DA6408E0FB687A689A
:104C80001A6504E00123FB7501E00123FB75FB6855
:104C9000002283F83420FB7D18461C37BD465DF8A2
:104CA000047B704780B483B000AF78607B6893F872
:104CB0003530DBB218460C37BD465DF8047B7047D3
:104CC00080B483B000AF78607B685B6D18460C37AA
:104CD000BD465DF8047B704780B487B000AFF860D4
:104CE000B9607A603B60FB689B6D7B61FB689B6D84
:104CF0003B61FB681B687F4A934272D0FB681B686C
:104D00007D4A93426DD0FB681B687C4A934268D011
:104D1000FB681B687A4A934263D0FB681B68794A38
:104D200093425ED0FB681B68774A934259D0FB6878
:104D30001B68764A934254D0FB681B68744A9342BE
:104D40004FD0FB681B68734A93424AD0FB681B68CC
:104D5000714A934245D0FB681B68704A934240D029
:104D6000FB681B686E4A93423BD0FB681B686D4A28
:104D7000934236D0FB681B686B4A934231D0FB6884
:104D80001B686A4A93422CD0FB681B68684A9342AE
:104D900027D0FB681B68674A934222D0FB681B68D8
:104DA000654A93421DD0FB681B68644A934218D041
:104DB000FB681B68624A934213D0FB681B68614A18
:104DC00093420ED0FB681B685F4A934209D0FB6890
:104DD0001B685E4A934204D0FB681B685C4A93429E
:104DE00001D1012300E00023002B0DD0FB685B6E96
:104DF000FA68926E5A60FB68DB6E002B04D0FB6889
:104E00001B6FFA68526F5A60FB681B68394A9342FD
:104E10004AD0FB681B68384A934245D0FB681B6840
:104E2000364A934240D0FB681B68354A93423BD0D8
:104E3000FB681B68334A934236D0FB681B68324AD2
:104E4000934231D0FB681B68304A93422CD0FB68F8
:104E50001B682F4A934227D0FB681B682D4A934258
:104E600022D0FB681B682C4A93421DD0FB681B684C
:104E70002A4A934218D0FB681B68294A934213D0F0
:104E8000FB681B68274A93420ED0FB681B68264AC2
:104E9000934209D0FB681B68244A934204D0FB6804
:104EA0001B68234A934201D1012300E00023002B19
:104EB00059D0FB68DB6D03F01F033F229A407B69EA
:104EC0009A60FB681B681A68FB681B6822F48022E2
:104ED0001A60FB681B683A685A60FB689B68402B45
:104EE00038D1FB681B687A689A60FB681B68BA68EF
:104EF000DA6086E0100002402800024040000240D4
:104F0000580002407000024088000240A0000240A9
:104F1000B80002401004024028040240400402404D
:104F2000580402407004024088040240A004024079
:104F3000B8040240085402581C5402583054025815
:104F400044540258585402586C5402588054025821
:104F500094540258FB681B68BA689A60FB681B6827
:104F60007A68DA604DE0FB681B68294A934222D0D8
:104F7000FB681B68274A93421DD0FB681B68264AC2
:104F8000934218D0FB681B68244A934213D0FB68F5
:104F90001B68234A93420ED0FB681B68214A934248
:104FA00009D0FB681B68204A934204D0FB681B6849
:104FB0001E4A934201D1012300E00023002B20D0A0
:104FC000FB68DB6D03F01F0301229A403B695A60C6
:104FD000FB681B683A685A60FB689B68402B08D1E5
:104FE000FB681B687A689A60FB681B68BA68DA60BD
:104FF00007E0FB681B68BA689A60FB681B687A6800
:10500000DA6000BF1C37BD465DF8047B704700BF07
:10501000085402581C540258305402584454025840
:10502000585402586C5402588054025894540258F0
:1050300080B485B000AF78607B681B68424A9342B9
:105040004AD07B681B68414A934245D07B681B6805
:105050003F4A934240D07B681B683E4A93423BD014
:105060007B681B683C4A934236D07B681B683B4A8E
:10507000934231D07B681B68394A93422CD07B68BD
:105080001B68384A934227D07B681B68364A934294
:1050900022D07B681B68354A93421DD07B681B6811
:1050A000334A934218D07B681B68324A934213D02C
:1050B0007B681B68304A93420ED07B681B682F4A7E
:1050C000934209D07B681B682D4A934204D07B68C9
:1050D0001B682C4A934201D1012300E00023002BDE
:1050E00024D07B681B68DBB2103B274AA2FB03235A
:1050F0001B09FB60FB6803F00703244AD35C1A46D4
:105100007B68DA65FB68032B08D97B681B681A4645
:105110001F4B13401A1D7B689A650DE07B681B6866
:105120001A461B4B13407A68936505E07B681B6841
:1051300023F0FF027B689A657B689B6D18461437E5
:10514000BD465DF8047B7047100002402800024015
:1051500040000240580002407000024088000240B7
:10516000A0000240B800024010040240280402409F
:105170004004024058040240700402408804024087
:10518000A0040240B8040240ABAAAAAABCE00308EB
:1051900000FCFFFF80B485B000AF78600023FB7394
:1051A0007B689B69002B20D17B689B6A032B58D8B6
:1051B00001A252F823F000BFC9510008DB510008DA
:1051C000C9510008635200087B68DB6A03F08073F2
:1051D000002B48D00123FB7345E07B68DB6AB3F109
:1051E000C07F42D10123FB733FE07B689B69B3F52D
:1051F000005F23D17B689B6A032B38D801A252F849
:1052000023F000BF155200081B5200081552000879
:105210002D5200080123FB7330E07B68DB6A03F04A
:105220008073002B25D00123FB7322E07B68DB6AAF
:10523000B3F1C07F1FD10123FB731CE07B689B6A25
:10524000022B02D9032B03D018E00123FB7315E0D6
:105250007B68DB6A03F08073002B0ED00123FB73A5
:105260000BE000BF0AE000BF08E000BF06E000BF9F
:1052700004E000BF02E000BF00E000BFFB7B184677
:105280001437BD465DF8047B704700BF80B485B01D
:1052900000AF78607B681B68BB607B681B68384A1E
:1052A000934222D07B681B68364A93421DD07B68AC
:1052B0001B68354A934218D07B681B68334A934277
:1052C00013D07B681B68324A93420ED07B681B6800
:1052D000304A934209D07B681B682F4A934204D01E
:1052E0007B681B682D4A934201D1012300E0002313
:1052F000002B1AD07B681B68DBB2083B284AA2FB54
:1053000003231B09FB60FA68264B13449B001A46D3
:105310007B681A667B68244A5A66FB6803F01F03A1
:1053200001229A407B689A6624E07B681B68DBB2A6
:10533000103B1E4AA2FB03231B09FB60BB681C4AEF
:10534000934206D8BB681B4A934202D9FB680833D4
:10535000FB60FA68184B13449B001A467B681A6678
:105360007B68164A5A66FB6803F01F0301229A40C5
:105370007B689A6600BF1437BD465DF8047B7047B2
:10538000085402581C5402583054025844540258CD
:10539000585402586C54025880540258945402587D
:1053A000CDCCCCCC0096001680580258ABAAAAAA45
:1053B000B80402400F04024000820010800802403E
:1053C00080B485B000AF78607B685B68DBB2FB605F
:1053D000FB68002B4AD0FB68082B47D87B681B680A
:1053E000254A934222D07B681B68244A93421DD0F1
:1053F0007B681B68224A934218D07B681B68214A4D
:10540000934213D07B681B681F4A93420ED07B687F
:105410001B681E4A934209D07B681B681C4A934252
:1054200004D07B681B681B4A934201D1012300E032
:105430000023002B0AD0FA68174B13449B001A462E
:105440007B68DA667B68154A1A6709E0FA68144BCC
:1054500013449B001A467B68DA667B68114A1A6718
:10546000FB68013B01229A407B685A6700BF1437F2
:10547000BD465DF8047B7047085402581C5402581E
:105480003054025844540258585402586C5402582C
:1054900080540258945402583F96001640590258BE
:1054A0003F8200104009024080B598B000AF78609C
:1054B000844A07F10C0311464C22184636F006F8D0
:1054C0007B68002B01D10123C6E17B681B687E4A03
:1054D000934206D17B681B6803F580731A467B688C
:1054E0005A607B6893F89830DBB2002B06D17B685A
:1054F000002283F899207868FCF722F87B681B6803
:105500009A697B681B6822F010029A61FCF7EAFF37
:10551000F86514E0FCF7E6FF0246FB6DD31A0A2B90
:105520000DD97B68D3F89C3043F001027B68C3F847
:105530009C207B68032283F8982001238CE17B6800
:105540001B689B6903F00803082BE3D07B681B688A
:105550009A697B681B6842F001029A61FCF7C2FFFE
:10556000F86514E0FCF7BEFF0246FB6DD31A0A2B68
:105570000DD97B68D3F89C3043F001027B68C3F8F7
:105580009C207B68032283F89820012364E17B68D8
:105590001B689B6903F00103002BE3D07B681B6849
:1055A0009A697B681B6842F002029A617B681B7CE7
:1055B000012B08D17B681B689A697B681B6822F005
:1055C00040029A6107E07B681B689A697B681B68E8
:1055D00042F040029A617B685B7C012B08D17B68BA
:1055E0001B689A697B681B6842F480429A6107E0F5
:1055F0007B681B689A697B681B6822F480429A6109
:105600007B689B7C012B08D17B681B689A697B684F
:105610001B6822F480529A6107E07B681B689A69D4
:105620007B681B6842F480529A617B681B689B69A7
:1056300023F440717B689A687B681B680A439A610F
:105640007B681B689A697B681B6822F0A4029A61D8
:105650007B681B681A697B681B6822F010021A615C
:105660007B68DB68012B08D17B681B689A697B68C3
:105670001B6842F004029A6130E07B68DB68002B13
:105680002CD07B68DB68022B20D07B681B689A6972
:105690007B681B6842F080029A617B681B681A690C
:1056A0007B681B6842F010021A617B68DB68032B81
:1056B00014D17B681B689A697B681B6842F02002E2
:1056C0009A610BE0A8D3030800A000407B681B6828
:1056D0009A697B681B6842F020029A617B689B692B
:1056E000013B5A067B68DB69013B1B021A437B685E
:1056F0001B6A013B42EA03017B685B69013B1A04B8
:105700007B681B680A43DA617B689B68B3F5407F5E
:1057100015D17B689B6A5A1E7B68DB6A013B1B02C2
:105720001A437B681B6B013B1B0142EA03017B6848
:105730005B6A013B1A047B681B680A43DA607B687A
:105740001B6E002B0AD07B681B68D3F8C0107B68E7
:105750005A6E7B681B680A43C3F8C0207B68DA6D09
:105760007B681B6E1344002B11D07B681B68D3F839
:10577000C83023F007017B689B6E9B0060333B447D
:1057800053F8542C7B681B680A43C3F8C8207B6815
:105790001B6C002B11D07B681B68D3F8BC3023F046
:1057A00007017B685B6C9B0060333B4453F8542CCF
:1057B0007B681B680A43C3F8BC207B689B6C002B8A
:1057C00012D07B681B68D3F8BC3023F070017B6873
:1057D000DB6C9B0060333B4453F8543C1A017B68FC
:1057E0001B680A43C3F8BC207B681B6D002B12D0DA
:1057F0007B681B68D3F8BC3023F4E0617B685B6D89
:105800009B0060333B4453F8543C1A027B681B688E
:105810000A43C3F8BC207B681B68114A934207D136
:105820007B685B689A687B685B6822F003029A6019
:105830007B680022C3F894207B680022C3F89C2078
:105840007B68012283F89820786800F091FD034678
:1058500087F85B3097F85B3018466037BD4680BDEF
:1058600000A0004080B487B000AF786039607B68EA
:1058700093F89830FB73FB7B012B02D0FB7B022B50
:1058800057D13B681B68002B2BD13B68DB68072B8B
:105890000DD13B681B691A043B68DB691B021A4384
:1058A0003B689B69134343F060537B610EE03B68A8
:1058B0009B689A073B68DB68DB061A433B681B69F9
:1058C0001B041A433B685B6913437B617B68DA6E98
:1058D0003B685B689B001344BB60BB687A691A60D5
:1058E00025E03B68DB685A073B681B6913437B6113
:1058F0003B68DB68072B03D13B689B693B6106E093
:105900003B689B689A073B685B6913433B617B6814
:105910001A6F3B685B68DB001344BB60BB687A6945
:105920001A60BB680433BB60BB683A691A60002325
:1059300008E07B68D3F89C3043F002027B68C3F830
:105940009C20012318461C37BD465DF8047B704738
:1059500080B483B000AF78607B6893F89830DBB296
:10596000012B11D17B68022283F898207B681B6889
:105970009A697B681B6822F001029A617B680022A9
:10598000C3F89C20002308E07B68D3F89C3043F0E8
:1059900004027B68C3F89C20012318460C37BD46DF
:1059A0005DF8047B7047000080B48BB000AFF860F6
:1059B000B9607A603B600023FB61FB6893F8983024
:1059C000FB76FB7E022B40F04981BB68402B4CD11B
:1059D000FB681B68D3F8A03003F4FE03002B09D149
:1059E000FB68D3F89C3043F02002FB68C3F89C208E
:1059F00001233CE1FB681B68D3F8A43003F07F036C
:105A0000002B09D1FB68D3F89C3043F48072FB680B
:105A1000C3F89C2001232AE1FB681B68D3F8A4305B
:105A200003F08073B3F1807F0AD1FB681B68D3F861
:105A3000A03003F00043B3F1004F01D10123FB611B
:105A4000FB681B68D3F8A4301B0A03F03F03FA6914
:105A50001344FB61FB685A6FFB685B6CF96901FBDF
:105A600003F39B0013447B6268E0BB68412B4CD17D
:105A7000FB681B68D3F8B03003F4FE03002B09D198
:105A8000FB68D3F89C3043F02002FB68C3F89C20ED
:105A90000123ECE0FB681B68D3F8B43003F07F030C
:105AA000002B09D1FB68D3F89C3043F48072FB686B
:105AB000C3F89C200123DAE0FB681B68D3F8B430FC
:105AC00003F08073B3F1807F0AD1FB681B68D3F8C1
:105AD000B03003F00043B3F1004F01D10123FB616B
